:100000000C942A000C9447000C9447000C94470071
:100010000C9447000C9447000C9447000C94630226
:100020000C9447000C9447000C9447000C94F80F74
:100030000C9447000C9447000C9447000C94470024
:100040000C94830E0C9447000C9447000C944700CA
:100050000C94470011241FBECFE5D8E0DEBFCDBF12
:1000600010E0A0E6B0E0E2EEF0E202C005900D92F2
:10007000A43EB107D9F727E0A4EEB0E001C01D927D
:10008000A137B207E1F70E94370D0C946F100C9462
:100090000000CF93DF93EC010E941B078091E400E6
:1000A0009091E500892B31F489EE90E09093E50082
:1000B0008093E4002091E6003091E700C9018C0FA5
:1000C0009D1F8B3D45E0940770F42817390770F4A5
:1000D000C091E400D091E500C20FD31F9093E700D8
:1000E0008093E60005C0C0E0D0E002C0C0E0D0E0F0
:1000F0000E94DB07CE01DF91CF9108950895FC01A6
:100100000396928381832FEF3FEF3483238396837B
:1001100085839087878310820895FC01118610865D
:100120000895CF93DF939C01FB01DC011196CD91E3
:10013000DC911297D383C2838C819D8195838483C4
:100140008C819D81DC0113967C936E9312977D8345
:100150006C8331872087F90180818F5F8083DF91F5
:10016000CF910895CF93DF93EB01488159814F3FA1
:100170002FEF520721F4FC01A781B0850DC0DC01EF
:10018000139601C0DF011296ED91FC911397208127
:10019000318142175307B0F71296ED91FC911397F6
:1001A000FB83EA83D583C483BD83AC831396DC933E
:1001B000CE93129799878887FC0120812F5F208337
:1001C000DF91CF910895CF93DF93FC01A085B18596
:1001D000C281D381848195819D838C83C481D581A3
:1001E000828193819B838A8311968D919C91129732
:1001F000E817F90731F48481958112969C938E93C8
:100200001197118610868C9181508C938C91DF917F
:10021000CF9108951BBC8CE78ABD8BE08EBD89B75A
:10022000806189BF089531E1FC013083319722E27A
:1002300020833197A3E3A083319760833197708344
:1002400031971082319760E860833197108231973F
:1002500062E06083319763E06083319764E060839C
:10026000319765E06083319766E06083319767E09E
:100270006083319768E06083319769E060833197EC
:1002800060E1608331973083319732E13083319779
:1002900033E13083319734E13083319735E1308376
:1002A000319736E13083319737E13083319738E148
:1002B0003083319739E13083319730E230833197A1
:1002C00031E2308331972083319723E220833197C5
:1002D000408331975083319726E22083319727E27C
:1002E0002083319728E22083319729E220833197B8
:1002F00020E32083319721E32083869708950E948D
:100300000A01A0914C07B0914D07CD91CDBFDD9171
:10031000DEBFFF91EF91DF91CF91BF91AF919F91A0
:100320008F917F916F915F914F913F912F911F918D
:100330000F91FF90EF90DF90CF90BF90AF909F9084
:100340008F907F906F905F904F903F902F901F9075
:100350000F900FBE0F90089581E008950F920FB691
:10036000F8940F921F9211242F923F924F925F9216
:100370006F927F928F929F92AF92BF92CF92DF92B5
:10038000EF92FF920F931F932F933F934F935F939F
:100390006F937F938F939F93AF93BF93CF93DF938D
:1003A000EF93FF93A0914C07B0914D070DB60D92BE
:1003B0000EB60D920E946308A0914C07B0914D07B4
:1003C000CD91CDBFDD91DEBFFF91EF91DF91CF9158
:1003D000BF91AF919F918F917F916F915F914F915D
:1003E0003F912F911F910F91FF90EF90DF90CF9051
:1003F000BF90AF909F908F907F906F905F904F9045
:100400003F902F901F900F900FBE0F9008950F9266
:100410000FB6F8940F921F9211242F923F924F9291
:100420005F926F927F928F929F92AF92BF92CF9284
:10043000DF92EF92FF920F931F932F933F934F936F
:100440005F936F937F938F939F93AF93BF93CF935C
:10045000DF93EF93FF93A0914C07B0914D070DB63A
:100460000D920EB60D920E94210781110E94630821
:10047000A0914C07B0914D07CD91CDBFDD91DEBF6E
:10048000FF91EF91DF91CF91BF91AF919F918F91AC
:100490007F916F915F914F913F912F911F910F919C
:1004A000FF90EF90DF90CF90BF90AF909F908F9094
:1004B0007F906F905F904F903F902F901F900F9084
:1004C0000FBE0F9008950E9407021895DC01519607
:1004D0002C915197222341F05696ED91FC9157971C
:1004E000908188E0891B089580E008950FB6F89404
:1004F0000F92FC01828D811102C081E001C080E079
:100500000F900FBE08950FB6F8940F92FC01228D44
:10051000838D281302C081E001C080E00F900FBEE0
:1005200008950F931F93CF93DF93EC01042F1A8D3F
:100530004C8D41110CC088819981892B09F042C0F2
:100540008C819D810E94CE091D821C8242C00111B6
:1005500017C050E08A819B810E9466102C8D8A8191
:100560009B81820F911D9B838A832C813D81821701
:10057000930750F1888199819B838A8380E029C009
:1005800050E08E819F810E9466108C8D90E0919545
:10059000819591092E813F81280F391F3F832E833A
:1005A000488159812417350730F42C813D81820F11
:1005B000931F9F838E83023049F4112349F0115019
:1005C00080E007C080E005C080E003C080E001C09B
:1005D00080E01F5F1A8FDF91CF911F910F910895D7
:1005E0001F93CF93DF93EC010FB6F8940F921E8DFB
:1005F0000BC08989882351F0CE0141960E94C90819
:1006000081110E945809115011169CF38FEF8E8FA3
:100610000F900FBE0FB6F8940F921D8D0BC08885FA
:10062000882351F0CE0108960E94C90881110E94CA
:100630005809115011169CF38FEF8D8F0F900FBE3C
:10064000DF91CF911F910895CF93DF93EC010FB607
:10065000F8940F92E881F9818B8D2C8D90E030E039
:10066000829FA001839F500D929F500D11244E0F29
:100670005F1F5D834C831A8EFB83EA830197289F5B
:10068000A001299F500D389F500D1124CF01840FD8
:10069000951F9F838E838FEF8D8F8E8F61110CC07E
:1006A0008885882389F0CE0108960E94C90888238E
:1006B00059F00E94AE0108C0CE0108960E947F004A
:1006C000CE0141960E947F000F900FBE81E0DF9126
:1006D000CF9108950F931F93F801611103C0118307
:1006E000008302C051834083838F648F61E0CF0118
:1006F0000E9424031F910F910895DF92EF92FF92C1
:100700000F931F93CF93DF93E82EF62ED42E6623FC
:1007100021F0869FC001112402C080E090E04F9636
:100720000E944900EC01009749F08C012D2DAC018D
:10073000415E5F4F6F2D8E2D0E946A03CE01DF91C7
:10074000CF911F910F91FF90EF90DF900895CF927E
:10075000DF92EF92FF920F931F93CF93DF9300D01E
:1007600000D01F92CDB7DEB78C017B015D834C8337
:10077000C22ED12C0FB6F8940F92F801928D838D72
:10078000981718F0F2E0CF1219C04C2DB701C8012C
:100790000E949102F8019189992349F0C80141967C
:1007A0000E94C908882331F00E94AE0103C0811164
:1007B0000E94AE010F900FBE81E04DC08C819D81E3
:1007C000892B21F40F900FBE80E045C0D11006C0E8
:1007D000CE0101960E941109DD24D3940F900FBE23
:1007E0000E941B070FB6F8940F92F801858D8F3F7A
:1007F00009F4158EF801868D8F3F09F4168E0F903F
:100800000FBEBE016C5F7F4FCE0101960E941C0996
:1008100081111BC0C8010E948302882381F06C8172
:100820007D81C80108960E94B708C8010E94F002A5
:100830000E94DB0781119ECF0E94AE019BCFC801B1
:100840000E94F0020E94DB0795CFC8010E94F002CF
:100850000E94DB0780E00F900F900F900F900F9099
:10086000DF91CF911F910F91FF90EF90DF90CF908C
:100870000895EF92FF920F931F93CF93DF9300D0D1
:1008800000D01F92CDB7DEB78C017D836C83E12C45
:10089000F12C0FB6F8940F92F801828D8823D1F0D5
:1008A0008150828F80819181892B29F40E945E0A78
:1008B000F80195838483F8018085882339F0C80185
:1008C00008960E94C90881110E94AE010F900FBEC8
:1008D00081E074C08C819D81892B21F40F900FBE23
:1008E00080E06CC0F11006C0CE0101960E94110993
:1008F000FF24F3940F900FBE0E941B070FB6F894CD
:100900000F92F801858D8F3F09F4158EF801868DC1
:100910008F3F09F4168E0F900FBEBE016C5F7F4FA4
:10092000CE0101960E941C0981112AC0C8010E94B3
:1009300076028823F9F0F80180819181892B51F4A6
:100940000FB6F8940F92848195810E945C09E82E7D
:100950000F900FBE6C817D81C80141960E94B7083F
:10096000C8010E94F0020E94DB07811192CF0E9411
:10097000AE018FCFC8010E94F0020E94DB0789CF31
:10098000C8010E94F0020E94DB07C8010E947602A3
:10099000882309F47ECFEE2081F00FB6F8940F92F1
:1009A000C8010E946602682FF801848195810E9427
:1009B0000E0A0F900FBE80E001C080E00F900F90F4
:1009C0000F900F900F90DF91CF911F910F91FF909B
:1009D000EF900895E091F006F091F1068081811189
:1009E00007C08FEF9FEF9093C8068093C7060895C6
:1009F000E091F006F091F1060580F681E02D068089
:100A0000F781E02D828193819093C8068093C70679
:100A10000895CF93DF93EC018F89988D0E947E001B
:100A2000CE010E947E00DF91CF9108956F927F9258
:100A30008F929F92AF92BF92CF92DF92EF920F93DD
:100A40001F93CF93DF93CDB7DEB74C01F5018789B4
:100A5000908D215031093C01620E731E61157105A4
:100A600089F416C0822F90E0FB01E80FF91F308156
:100A7000D501A80FB91F59963C938081882329F08E
:100A80002F5F01C020E0283068F3F50110A202C0FA
:100A9000F501118EF7E0FE1520F40F2EF7E0EF2E92
:100AA000F02DF501E68AE1A212A2C50102960E948C
:100AB0008D00C5010C960E948D00F501B186A086BF
:100AC00088E090E08E19910995878487B38AA28A7D
:100AD00013A214A215A216A217A2A801B401C30161
:100AE0000E941301F50191838083C114D10419F090
:100AF000F601B182A082DF91CF911F910F91EF900B
:100B0000DF90CF90BF90AF909F908F907F906F902D
:100B10000895CF93C0E010C08C2F90E09C01220F6D
:100B2000331F220F331F220F331F820F931F8C5F3F
:100B3000984F0E947F00CF5FC83070F38BEF96E034
:100B40000E947F0082EF96E00E947F0085EE96E093
:100B50000E947F008CED96E00E947F0082ED96E07F
:100B60000E947F008BEF96E09093F1068093F00651
:100B700082EF96E09093EF068093EE06CF91089572
:100B8000CF93DF93EC010FB6F8940F928091D106CA
:100B90008F5F8093D10680914C0790914D07892BF0
:100BA00059F4D0934D07C0934C078091D106813002
:100BB00099F40E94890510C08091CD0681110CC066
:100BC000E0914C07F0914D0796898E89891720F0A6
:100BD000D0934D07C0934C078091C9068F5F8093D7
:100BE000C9068E899091CE06981710F48093CE0690
:100BF00090E09C01220F331F220F331F220F331F5F
:100C0000820F931FBE016E5F7F4F8C5F984F0E94D3
:100C100091000F900FBE8091CD06882351F0E09196
:100C20004C07F0914D0796898E89981710F40E9411
:100C3000AE01DF91CF910895CF93DF931CC00FB623
:100C4000F8940F92E091E106F091E206C681D78117
:100C5000CE0102960E94E3008091D10681508093DC
:100C6000D1068091DB0681508093DB060F900FBE8A
:100C7000CE010E9409058091DB068111E0CFDF9152
:100C8000CF9108950E941C06FDCFFF920F931F93F2
:100C9000CF93DF93EC01F62E0091CF061091D00692
:100CA00080914C0790914D0702960E94E300CF3F40
:100CB0008FEFD80769F4FF2059F060914C077091CD
:100CC0004D076E5F7F4F82ED96E00E9491002FC02E
:100CD000C00FD11FE0914C07F0914D07D383C28321
:100CE000C017D10768F460914C0770914D0780914F
:100CF000EE069091EF066E5F7F4F0E94B20017C024
:100D000060914C0770914D078091F0069091F1062B
:100D10006E5F7F4F0E94B2008091C7069091C80617
:100D2000C817D90720F4D093C806C093C706DF912F
:100D3000CF911F910F91FF9008952F923F924F9264
:100D40005F926F927F928F929F92AF92BF92CF925B
:100D5000DF92EF92FF920F931F93CF93DF933C01AB
:100D60001B015A012901CA010E9449006C01892B0B
:100D700071F088E290E00E944900EC01892B19F0A3
:100D8000D88ECF8A06C0C6010E947E0002C0C0E095
:100D9000D0E0209791F0950140E050E0812C912C1B
:100DA0005E016701E02E8201B101C3010E941605B8
:100DB000CE010E94C00581E001C08FEFDF91CF918D
:100DC0001F910F91FF90EF90DF90CF90BF90AF9069
:100DD0009F908F907F906F905F904F903F902F905B
:100DE0000895EF92FF920F930F2EF5ECEF2EF6E0A1
:100DF000FF2EF02D00E020E030E045E550E068E710
:100E000070E082E496E00E949D06813081F4F894BF
:100E10008FEF9FEF9093C8068093C70681E0809381
:100E2000CD061092D0061092CF060E947F010F913E
:100E3000FF90EF9008958091C4068F5F8093C40661
:100E40000895DF92EF92FF920F931F93CF93DF935A
:100E50008091C406811197C0E090CF06F090D00633
:100E60008FEFE81AF80AF092D006E092CF06E1146C
:100E7000F104B9F48091F0069091F1062091EE060C
:100E80003091EF063093F1062093F0069093EF0631
:100E90008093EE068091CA068F5F8093CA060E94F7
:100EA000EA048091C7069091C806E816F90628F46E
:100EB000D12C53C0DD24D39401C0D12CE091F00695
:100EC000F091F1068081811107C08FEF9FEF909321
:100ED000C8068093C70641C0E091F006F091F10684
:100EE0000580F681E02DC681D7818A819B81E81635
:100EF000F90628F49093C8068093C7062EC08E0189
:100F00000E5F1F4FC8010E94E3008C899D89892BC9
:100F100021F0CE010C960E94E3008E899091CE06BE
:100F2000981710F48093CE0690E09C01220F331F97
:100F3000220F331F220F331F820F931FB8018C5FC4
:100F4000984F0E9491009E89E0914C07F0914D07C7
:100F50008689981708F0AECFB1CFE0914C07F09199
:100F60004D07868990E0FC01EE0FFF1FEE0FFF1F7B
:100F7000EE0FFF1F8E0F9F1FFC01EC5FF84F80816B
:100F8000823040F409C08091CC068F5F8093CC06FC
:100F9000D12C02C0DD24D3948091CB06882311F09C
:100FA000DD24D3948D2DDF91CF911F910F91FF9070
:100FB000EF90DF9008950F931F93CF93DF930FB6B9
:100FC000F8940F928091C40681508093C40680915A
:100FD000C406811158C08091D106811133C056C01A
:100FE000E091EA06F091EB06C681D781CE010C961E
:100FF0000E94E3008E010E5F1F4FC8010E94E300B4
:101000008E899091CE06981710F48093CE0690E0CA
:101010009C01220F331F220F331F220F331F820F19
:10102000931FB8018C5F984F0E9491009E89E091B8
:101030004C07F0914D078689981730F081E0809336
:10104000CB0602C0C0E0D0E08091E5068111C8CF98
:10105000CD2B11F00E94EA04C091CC06CC2359F0AC
:101060000E942107882319F081E08093CB06C150AC
:10107000B9F71092CC068091CB06882331F00E94FC
:10108000AE0181E003C080E001C080E00F900FBEA0
:10109000DF91CF911F910F910895CF93DF93EC01D2
:1010A000892B49F00E941B0760E0CE010E94450693
:1010B0000E94DB0701C080E0811102C00E94AE01E6
:1010C000DF91CF9108958091C406882321F081E0BB
:1010D0008093CB0608951092CB062091CE0601C0D6
:1010E0002150822F90E0FC01EE0FFF1FEE0FFF1F3B
:1010F000EE0FFF1FE80FF91FEC5FF84F308133232D
:1011000079F3AC01440F551F440F551F440F551F71
:10111000480F591FDF010180F281E02D0280F38129
:10112000E02D1296FC93EE931197495F584FE41708
:10113000F50729F442815381FD0152834183FC016B
:10114000EE0FFF1FEE0FFF1FEE0FFF1F8E0F9F1FF3
:10115000FC01EC5FF84F0180F281E02D86819781E0
:1011600090934D0780934C072093CE060895CF931C
:10117000DF93EB0160914C0770914D07645F7F4FE7
:101180000E94B20061E0CE010E944506DF91CF913E
:1011900008950F931F93CF93DF93DC011596ED9184
:1011A000FC911697C681D7818E01045F1F4FC8013D
:1011B0000E94E3008091C40681111CC00A501109ED
:1011C000C8010E94E3008E899091CE06981710F412
:1011D0008093CE0690E09C01220F331F220F331F15
:1011E000220F331F820F931FB8018C5F984F0E940C
:1011F000910005C0B80185EE96E00E9491009E899D
:10120000E0914C07F0914D078689891720F481E021
:101210008093CB0601C080E0DF91CF911F910F91A9
:1012200008952091CA06FC0120832091CF063091B9
:10123000D0063283218308951F93CF93DF930FB697
:10124000F8940F92E091CF06F091D006DC01119650
:101250004D915C911297DF01A41BB50BEB01288126
:1012600039812F3FDFEF3D07D1F0EC011881C091AC
:10127000CA061C1719F0E417F50798F4A217B3076C
:1012800048F4FB012A1B3B0B318320830E94110988
:1012900080E008C0FB011182108281E003C080E081
:1012A00001C081E00F900FBEDF91CF911F91089593
:1012B00081E08093CB0608950F931F93CF93DF9324
:1012C000FC01892B09F462C02689A0914C07B091DA
:1012D0004D0756968C91281708F04EC08485958549
:1012E000992364F0A0914C07B0914D0756963C911C
:1012F00088E090E0831B9109958784878285938598
:1013000030E0A901440F551F440F551F440F551FCE
:10131000240F351F2C5F384F8217930721F58F015B
:10132000EF012296CE010E94E300E0914C07F0917C
:101330004D078689F801868B9091CE06981710F498
:101340008093CE0690E09C01220F331F220F331FA3
:10135000220F331F820F931FBE018C5F984F0E9494
:10136000910081E016C0A0914C07B0914D075696B0
:101370008C91868B81E00DC091A1E0914C07F0919A
:101380004D078689981720F080E003C080E001C0F7
:1013900081E0DF91CF911F910F9108950F931F93DB
:1013A000CF93DF93FC01892B79F182A1815082A335
:1013B000268991A1291751F181112AC0EF018F01CE
:1013C0000E5F1F4FC8010E94E30089A18E8B28E0A9
:1013D00030E0281B31093D872C879091CE06981765
:1013E00010F48093CE0690E09C01220F331F220F51
:1013F000331F220F331F820F931FB8018C5F984F4A
:101400000E94910081E005C080E003C080E001C03F
:1014100080E0DF91CF911F910F9108950F931F935B
:10142000CF93DF93FC01892B09F443C091A1961758
:1014300008F4962F86899817E1F122A12130C9F589
:10144000968B24853585332334F028E030E0291B42
:101450003109358724872285338590E0AC01440F1C
:10146000551F440F551F440F551F840F951F8C5F48
:10147000984F28173907E9F4EF018F010E5F1F4FCE
:10148000C8010E94E3008E899091CE06981710F44F
:101490008093CE0690E09C01220F331F220F331F52
:1014A000220F331F820F931FB8018C5F984F0E9449
:1014B0009100DF91CF911F910F91089580914C077A
:1014C00090914D07892B39F0E0914C07F0914D0731
:1014D00082A18F5F82A380914C0790914D07089560
:1014E00081B38F6081BB81B38F7081BB82B3806F0A
:1014F00082BB0895CF93C0E03DC082B36C2F70E0F3
:10150000A1E0B0E00C2E02C0AA0FBB1F0A94E2F7C4
:101510009A2F9095892382BB20E026C080B3422F6A
:1015200050E0FA01E059FF4F3081E32F90E002C014
:10153000959587953A95E2F780FD15C080B390E0C8
:101540000E2E02C0959587950A94E2F780FFF6CF9C
:10155000660F771F660F771F605A7F4FFB01E40FFE
:10156000F51F80810AC02F5F2430C0F282B3A82B00
:10157000A2BBCF5FC43008F280E0CF91089590E025
:1015800021E030E007C0A901849F9001859F300DC4
:1015900011249F5F9617B8F3C9010895CF93C82F00
:1015A00040E065E082E00E946D0F40E064E082E090
:1015B0000E946D0F6C2F81E00E94E60F41E063E016
:1015C00082E00E946D0F83EF91E00197F1F700C078
:1015D000000040E063E082E00E946D0FCF9108952B
:1015E000CF93C82F41E065E082E00E946D0F40E09C
:1015F00064E082E00E946D0F6C2F81E00E94E60F94
:1016000041E063E082E00E946D0F83EF91E001977B
:10161000F1F700C0000040E063E082E00E946D0F3F
:10162000CF9108958FE097E20197F1F700C0000095
:1016300088E30E94CE0A8CE00E94CE0A81E00E94DC
:10164000CE0A08950F931F93CF938C01C0E003C07F
:101650000E94F00ACF5FF801EC0FF11D808181112B
:10166000F7CFCF911F910F910895611106C0982F68
:1016700020E4629F900D112401C090E0613029F4B4
:10168000982F20E4629F900D112480E8890F0E941A
:10169000CE0A089541E060E081E00E94F40E41E04E
:1016A00061E081E00E94F40E41E062E081E00E948E
:1016B000F40E41E063E081E00E94F40E41E064E05A
:1016C00081E00E94F40E41E065E081E00E94F40EAA
:1016D00041E066E081E00E94F40E41E067E081E0D5
:1016E0000E94F40E41E063E082E00E94F40E41E0CB
:1016F00064E082E00E94F40E41E065E082E00E9436
:10170000F40E089581E00E94CE0A0895EF92FF92B0
:101710000F931F93CF93DF93EC01009789F480E33D
:101720000E94F00A29C0ADECBCEC0E9457109C014D
:101730003695279536952795369527950F5F02C0E4
:101740009C0100E02115310571F710E013C0602FF6
:10175000611B61508AE00E94BF0ABC01CE010E9459
:101760002110E82EF92E80E3860F0E94F00ACE2D7C
:10177000DF2D1F5F101758F3DF91CF911F910F914D
:10178000FF90EF90089589E697E00E94350E6FEF85
:101790007FEF80915307909154070E943904813064
:1017A00041F061E084E00E94350B8DE790E00E94FB
:1017B000220B84E690E00E944D08E5CFE0916B0794
:1017C000F0916C0720813181A8E8B3E10E945710A5
:1017D0002FEF33E040E050E00E94351030935D077A
:1017E00020935C0780915607813071F4253C394085
:1017F00030F041E061E082E00E946D0F05C040E002
:1018000061E082E00E946D0F84E690E00E944D0846
:10181000D5CFE0916B07F0916C0722813381A8E866
:10182000B3E10E9457102FEF33E040E050E00E94F8
:101830003510ADECBCEC0E945710969587959695A7
:1018400087959695879590935B0780935A0720918B
:101850005607213069F4459730F041E060E082E0BE
:101860000E946D0F05C040E060E082E00E946D0FB5
:1018700084E690E00E944D08CCCF20E040E050E0AC
:1018800060E070E080915307909154070E94A70395
:10189000089580915607811114C020E040E050E087
:1018A00060E070E080915107909152070E94A70379
:1018B00060E080E00E94350B85E890E00E94220BFA
:1018C000BDC0813009F0BAC0809174008130B9F494
:1018D00020E040E050E060E070E08091510790919E
:1018E00052070E94A7030E94820B84E990E00E94A5
:1018F000220B1092740088EE93E00E944D088091B4
:101900005007811155C020E040E050E060E070E0F9
:1019100080915107909152070E94A7030E94820B69
:1019200060E080E00E94350B85EA90E00E94220B87
:1019300060E08AE00E94350B8BEA90E00E94220B67
:1019400061E080E00E94350B8EEA90E00E94220B5D
:1019500061E08BE00E94350B85EB90E00E94220B4A
:1019600060E085E00E94350B87EB90E00E94220B3F
:1019700060E085E00E94350B80915C0790915D07E7
:101980000E94860B61E086E00E94350B87EB90E0B9
:101990000E94220B61E086E00E94350B80915A077D
:1019A00090915B070E94860B81E08093500746C0B0
:1019B000813009F043C00E94820B60E080E00E9409
:1019C000350B8CEB90E00E94220B80915C0790918C
:1019D0005D07853C994048F060E087E00E94350B48
:1019E00083EC90E00E94220B08C060E087E00E9438
:1019F000350B88EC90E00E94220B61E080E00E94B1
:101A0000350B8EEC90E00E94220B80915A0790914A
:101A10005B07459748F061E085E00E94350B83EC59
:101A200090E00E94220B08C061E085E00E94350B27
:101A300088EC90E00E94220B1092500788EE93E011
:101A40000E944D0826CF0E944A0B0E94120B0E9452
:101A5000700A41E060E082E00E94F40E41E061E043
:101A600082E00E94F40E0E94250E78940895CF9390
:101A7000DF93CDB7DEB729970FB6F894DEBF0FBE60
:101A8000CDBF198287E08A8386E08B83DE011496BE
:101A9000FD0111928A95E9F7E9E6F7E0CE0101969A
:101AA00091838083B383A28383E084838DE39CE06E
:101AB000968385830E94230DE12CF12C02E020E027
:101AC00030E044E650E060E070E083EC9BE00E9490
:101AD0009D0603E020E030E044E650E060E070E086
:101AE0008EED9BE00E949D0605E020E030E044E69C
:101AF00050E060E070E089E09CE00E949D0604E018
:101B000020E030E04EE551E060E070E089E49CE0E8
:101B10000E949D0601E020E030E04EE551E060E0EB
:101B200070E08CED9DE00E949D0643E060E081E066
:101B30000E947D03909354078093530743E060E035
:101B400081E00E947D0390935207809351070E9489
:101B5000F106FFCFCF9320E0C0E025C08C2F90E0AE
:101B6000FC01E95AF84F3081FC01EB58FF4F8081AE
:101B70003817B9F010925607809155078F5F809300
:101B800055070E94820B60E080E00E94350B84EDD7
:101B900090E00E94220B88EE93E00E944D0820E026
:101BA00001C02F5FCF5FC330C8F2233019F481E04A
:101BB00080935607CF9108956FEF7FEF8091510783
:101BC000909152070E943904C0E0C11139C00E94AF
:101BD0007A0A80934F0722C00E947A0A80934F07A7
:101BE00090914F079923C1F380914E07E82FF0E0C1
:101BF000E95AF84F908361E00E94350BE0914E075F
:101C0000F0E0E95AF84F808190E00E94860B8091C5
:101C10004E078F5F80934E0710924F0780914E07BB
:101C20008330F0F20E94AA0D80914E07833021F498
:101C300080915607813019F010924E0701C0C1E023
:101C400082E390E00E944D08C0CF87B1806487B9DD
:101C500087B18F7787B986B1887F86B986B183606F
:101C600086B986B1806886B90895FC01892B09F48C
:101C700040C080819181892BF1F18281938100970D
:101C8000E1F12581368121153105C9F140916407C3
:101C9000411137C041E04093640740937007408191
:101CA000518150936107409360079093660780933A
:101CB0006507848180935E073093630720936207F2
:101CC00010925F0787B1807E87B997B180915F07D7
:101CD000E0916007F0916107E80FF11D8081892B89
:101CE00087B986B1806486B986B1886086B982E09A
:101CF000089584E0089584E0089584E0089584E0E0
:101D0000089581E008951F920F920FB60F9211244B
:101D10002F933F934F935F936F937F938F939F93F3
:101D2000AF93BF93EF93FF9380917007811115C01C
:101D3000E0916507F091660784B195B19183808346
:101D40001092640786B1877F86B9E0916207F091AF
:101D500063073097C1F1099536C080915F07E82F7E
:101D6000F0E0EE0FFF1F2091650730916607E20F4C
:101D7000F31F24B135B1318320838F5F80935F07D8
:101D800090915E0789130DC01092640786B1877F1A
:101D900086B9E0916207F09163073097A1F0099549
:101DA00012C087B1807E87B997B180915F07E091BB
:101DB0006007F0916107E80FF11D8081892B87B9D9
:101DC00086B1806486B9FF91EF91BF91AF919F91E9
:101DD0008F917F916F915F914F913F912F910F90D4
:101DE0000FBE0F901F901895683008F075C08430B2
:101DF00008F072C04130B9F5813091F028F082309E
:101E0000D9F0833029F12FC09AB321E030E0062EBB
:101E100002C0220F331F0A94E2F7292B2ABB23C0EA
:101E200097B321E030E0062E02C0220F331F0A9440
:101E3000E2F7292B27BB17C094B321E030E0062E30
:101E400002C0220F331F0A94E2F7292B24BB0BC0D8
:101E500091B321E030E0062E02C0220F331F0A9416
:101E6000E2F7292B21BB411137C0813091F028F0D6
:101E70008230D9F0833029F108952AB381E090E0CF
:101E800002C0880F991F6A95E2F7809582238ABB6A
:101E9000089527B381E090E002C0880F991F6A95EA
:101EA000E2F78095822387BB089524B381E090E018
:101EB00002C0880F991F6A95E2F78095822384BB40
:101EC000089521B381E090E002C0880F991F6A95C0
:101ED000E2F78095822381BB0895843008F075C0B5
:101EE000683008F072C041113BC0813099F028F091
:101EF0008230E9F0833041F133C09BB321E030E020
:101F0000062E02C0220F331F0A94E2F720952923E0
:101F10002BBB26C098B321E030E0062E02C0220F72
:101F2000331F0A94E2F72095292328BB19C095B3E3
:101F300021E030E0062E02C0220F331F0A94E2F7A0
:101F40002095292325BB0CC092B321E030E0062E5A
:101F500002C0220F331F0A94E2F72095292322BBE7
:101F6000413099F5813089F028F08230C9F0833012
:101F700011F108952BB381E090E002C0880F991F02
:101F80006A95E2F7822B8BBB089528B381E090E03D
:101F900002C0880F991F6A95E2F7822B88BB0895CB
:101FA00025B381E090E002C0880F991F6A95E2F79F
:101FB000822B85BB089522B381E090E002C0880F98
:101FC000991F6A95E2F7822B82BB0895843078F4DA
:101FD000813041F028F0823039F0833039F00895B3
:101FE0006BBB089568BB089565BB089562BB0895F7
:101FF0001F920F920FB60F9211242F933F934F937E
:102000005F936F937F938F939F93AF93BF93EF9360
:10201000FF93E0916707F0916807309709F0099501
:10202000FF91EF91BF91AF919F918F917F916F91B0
:102030005F914F913F912F910F900FBE0F901F9086
:102040001895AA1BBB1B51E107C0AA1FBB1FA617EF
:10205000B70710F0A61BB70B881F991F5A95A9F751
:1020600080959095BC01CD010895A1E21A2EAA1B7E
:10207000BB1BFD010DC0AA1FBB1FEE1FFF1FA21738
:10208000B307E407F50720F0A21BB30BE40BF50B35
:10209000661F771F881F991F1A9469F760957095BE
:1020A000809590959B01AC01BD01CF010895A29F41
:1020B000B001B39FC001A39F700D811D1124911D1C
:1020C000B29F700D811D1124911D0895FB01DC014B
:1020D00002C001900D9241505040D8F70895F894F5
:0220E000FFCF30
:1020E2000102030405060708090A0B0C0D0E0F1066
:1020F200040506070101020349444C450054696D79
:10210200654F757400656E746572207061737377C4
:102112006F726400636F72726563742070617373AF
:10212200776F72640020504F543D006D760020742A
:10213200656D703D006300202020200020646F6FD9
:10214200723D006F70656E00636C6F736500206690
:10215200616E3D0077726F6E672070617373776F87
:0421620072640000A3
:00000001FF
